:020000040020DA
:1000000000000820416422005988210063882100F3
:100010006D88210077882100818821000000000080
:10002000000000000000000000000000913D2200E0
:100030008B88210000000000913F2200F93F220040
:100040009164220091642200916422009164220054
:100050009164220091642200916422009164220044
:100060009164220091642200916422009164220034
:1000700091642200916422009988210091642200F9
:100080009164220091642200916422009164220014
:100090009164220091642200916422009164220004
:1000A00091642200916422009164220091642200F4
:1000B00091642200916422009164220091642200E4
:1000C00091642200916422009164220091642200D4
:1000D00091642200916422009164220091642200C4
:1000E00091642200916422009164220091642200B4
:1000F00091642200AD882100916422009164220065
:1001000091642200C1882100916422009164220040
:100110009164220091642200916422009164220083
:10012000916422009164220091642200D58821000C
:100130009164220091642200916422009164220063
:100140009164220091642200916422009164220053
:1001500091642200E98821009164220091642200C8
:100160009164220091642200916422009164220033
:10017000916422009164220091642200000000003A
:100180009164220091642200FD8821009164220084
:100190009164220091642200916422009164220003
:1001A000916422009164220011892100916422004F
:1001B00091642200916422009164220091642200E3
:1001C00091642200916422009164220091642200D3
:1001D00091642200916422009164220091642200C3
:1001E00091642200916422009164220091642200B3
:0801F0009164220091642200D9
:1002000010B5054C237833B9044B13B10448AFF350
:1002100000800123237010BD80000020000000003A
:10022000F881220008B5034B1BB103490348AFF323
:10023000008008BD0000000084000020F88122003A
:10024000034613F8012B002AFBD1181A0138704716
:1002500080F0004002E000BF81F0004142001FBF7B
:100260005FEA410392EA030F7FEA226C7FEA236C84
:100270006AD04FEA1262D2EB1363C1BFD218414079
:1002800048404140B8BF5B42192B88BF704710F00F
:10029000004F40F4000020F07F4018BF404211F0B2
:1002A000004F41F4000121F07F4118BF494292EA1A
:1002B000030F3FD0A2F1010241FA03FC10EB0C0046
:1002C000C3F1200301FA03F100F0004302D54942D3
:1002D00060EB4000B0F5000F13D3B0F1807F06D380
:1002E00040084FEA310102F10102FE2A51D2B1F178
:1002F000004F40EBC25008BF20F0010040EA03006D
:100300007047490040EB000010F4000FA2F1010219
:10031000EDD1B0FA80FCACF1080CB2EB0C0200FAA3
:100320000CF0AABF00EBC25052421843BCBFD040F1
:100330001843704792F0000F81F4000106BF80F46B
:1003400000000132013BB5E74FEA41037FEA226C2E
:1003500018BF7FEA236C21D092EA030F04D092F0F9
:10036000000F08BF0846704790EA010F1CBF00202D
:10037000704712F07F4F04D1400028BF40F000408A
:10038000704712F100723CBF00F50000704700F0AA
:10039000004343F0FE4040F4000070477FEA2262D1
:1003A00016BF08467FEA23630146420206BF5FEAA2
:1003B000412390EA010F40F4800070474FF00003A2
:1003C00004E000BF10F0004348BF40425FEA000C69
:1003D00008BF704743F0964301464FF000001CE011
:1003E00050EA010208BF70474FF000030AE000BF67
:1003F00050EA010208BF704711F0004302D54042A5
:1004000061EB41015FEA010C02BF84460146002016
:1004100043F0B64308BFA3F18053A3F50003BCFA31
:100420008CF2083AA3EBC25310DB01FA02FC6344DE
:1004300000FA02FCC2F12002BCF1004F20FA02F2E5
:1004400043EB020008BF20F00100704702F12002D8
:1004500001FA02FCC2F1200250EA4C0021FA02F239
:1004600043EB020008BF20EADC7070477BB972B929
:100470000029BEBF00204FF0004106E008BF002861
:100480001CBF6FF000414FF0FF3000F0FBB9ADF141
:10049000080C6DE904CE002909DB002B1ADB00F003
:1004A00083F8DDF804E0DDE9022304B07047404240
:1004B00061EB4101002B1BDB00F076F8DDF804E076
:1004C000DDE9022304B0404261EB4101524263EB9B
:1004D00043037047524263EB430300F065F8DDF8D5
:1004E00004E0DDE9022304B0404261EB41017047C2
:1004F000524263EB430300F057F8DDF804E0DDE916
:10050000022304B0524263EB4303704753B94AB924
:10051000002908BF00281CBF4FF0FF314FF0FF300B
:1005200000F0B0B9ADF1080C6DE904CE00F03CF874
:10053000DDF804E0DDE9022304B0704707EE900A1D
:10054000F5EEC07AF1EE10FA01D400F009B808B562
:1005500080F0004000F004F8404261EB410108BD2A
:100560009FED0D6B07EE900A9FED0D5BB7EEE77AFE
:1005700027EE066BBCEEC66B0020B8EE464BA4EE31
:10058000457BBCEEC77B16EE101A17EE103A1843E7
:10059000704700BFAFF30080000000000000F03D96
:1005A000000000000000F0412DE9F0478C460D46A8
:1005B0000446089E002B51D18A4217466DD9B2FAE3
:1005C00082FEBEF1000F0BD0CEF1200C01FA0EF529
:1005D00020FA0CFC02FA0EF74CEA050C00FA0EF4B5
:1005E0004FEA174A250CBCFBFAF81FFA87F90AFBF9
:1005F00018CC45EA0C4508FB09F3AB420AD9ED19C2
:1006000008F1FF3280F02381AB4240F22081A8F153
:1006100002083D44ED1AA4B2B5FBFAF00AFB1055EE
:1006200044EA054400FB09F9A14509D9E41900F1A0
:10063000FF3380F00A81A14540F2078102383C4433
:10064000A4EB090440EA08400021002E61D024FAFE
:100650000EF4002334607360BDE8F0878B4207D945
:10066000002E54D0002186E821000846BDE8F0871E
:10067000B3FA83F1002940F08E80AB4202D382426C
:1006800000F2FA80841A65EB03050120AC46002EC7
:100690003FD086E81010BDE8F08712B90127B7FBFC
:1006A000F2F7B7FA87FEBEF1000F34D1EB1B3A0C1C
:1006B0001FFA87FC0121B3FBF2F8250C02FB18336B
:1006C00045EA03450CFB08F3AB4207D9ED1908F1E5
:1006D000FF3002D2AB4200F2D1808046ED1AA3B2C5
:1006E000B5FBF2F002FB105543EA05440CFB00FC9D
:1006F000A44507D9E41900F1FF3302D2A44500F262
:10070000B8801846A4EB0C0440EA08409DE7314647
:100710003046BDE8F087CEF1200405FA0EF307FA63
:100720000EF720FA04F83A0C25FA04F448EA030814
:10073000B4FBF2F14FEA184502FB11441FFA87FCA3
:1007400045EA044501FB0CF3AB4200FA0EF409D96B
:10075000ED1901F1FF3080F08A80AB4240F28780D2
:1007600002393D44EB1A1FFA88F5B3FBF2F002FBA5
:10077000103345EA034500FB0CF3AB4207D9ED19F2
:1007800000F1FF386FD2AB426DD902383D44EB1A0D
:1007900040EA01418FE7C1F1200722FA07F88B40B8
:1007A00005FA01F448EA030320FA07FE4FEA134C66
:1007B000FD404EEA040EB5FBFCF94FEA1E440CFB6B
:1007C00019551FFA83F844EA054509FB08F4AC42C1
:1007D00002FA01F200FA01FA08D9ED1809F1FF3026
:1007E00043D2AC4241D9A9F102091D442D1B1FFA85
:1007F0008EFEB5FBFCF00CFB10554EEA054400FBE9
:1008000008F8A04507D9E41800F1FF3529D2A04522
:1008100027D902381C4440EA0940A4EB0804A0FB95
:1008200002894C45C6464D4615D312D056B1BAEB97
:100830000E0364EB050404FA07F7CB401F43CC40DA
:10084000376074600021BDE8F0871846F8E69046EE
:10085000E0E6C245EAD2B8EB020E69EB03050138C7
:10086000E4E72846D7E7404691E78146BEE70146E0
:1008700078E702383C4445E7084608E7A8F1020853
:100880003D442BE7704700BF80B500AF18F04EF92C
:1008900064220021044825F04CFE6421024818F02F
:1008A00063FA00BF80BD00BFA000002080B582B009
:1008B00000AF786039607B68002B02D0386818F090
:1008C0003DFA00BF0837BD4680BD0CB480B584B08A
:1008D00000AF786039607B68002B12D0386823F055
:1008E0001DFCF86007F11C03BB60BB68BA6939687E
:1008F000F86800F0CCFCF86818F020FAF86823F0EB
:10090000D5FC00BF1037BD46BDE8804002B070473F
:1009100080B400AF054B1B78002B01D0012300E011
:1009200000231846BD465DF8047B7047A0000020F8
:1009300080B582B000AF786079680C4825F023FE5E
:100940000346002B0CD018F039FA64220021074826
:1009500025F0EFFD6421054818F006FA012300E0B8
:10096000002318460837BD4680BD00BFA000002008
:1009700080B500AF084818F0E1F96422002106486C
:1009800025F0D7FD6421044818F0EEF90349012051
:10099000FFF78CFF00BF80BDA00000201082220066
:1009A00080B582B000AF7860FFF7B2FF0346002B3E
:1009B00009D07868FFF7BCFF0346002B01D0012364
:1009C00002E0002300E0002318460837BD4680BD42
:1009D000F0B52DED028B99B000AFF86087ED020AFB
:1009E00079604FF001034FF00004C7E91034FB6851
:1009F000FB63D7ED027AF0EEE77A9FEDB97AF4EE79
:100A0000477AF1EE10FA8CBF01230023DBB283F0AA
:100A10000103DBB2002B00F03D81D7ED027A9FEDA0
:100A2000B17AF4EEC77AF1EE10FA08D9D7ED027A6E
:100A30009FEDAD7AF4EEC77AF1EE10FA19DBFB6B9D
:100A40005A1CFA632D221A70FB6B5A1CFA632D2272
:100A50001A70FB6B5A1CFA632D221A70FB6B5A1C1E
:100A6000FA632D221A70FB6B5A1CFA632D221A703E
:100A700029E1D7ED027AF5EEC07AF1EE10FA0ED543
:100A8000FB6B5A1CFA632D221A70D7ED027AB7EE6F
:100A9000E77AF7EEC77BF1EE677AC7ED027A7B68FB
:100AA000072B2CD8D7ED027AB7EEE76A8F4A7B681E
:100AB000DB00134493ED007B36EE077BF7EEC77B3C
:100AC000C7ED027A0023FB6514E0D7E910120B464C
:100AD0001446A60046EA93769D002B4634465B18E2
:100AE00044EB0204DB1844EB0404C7E91034FB6D4B
:100AF0000133FB65FA6D7B689A42E6D312E0072367
:100B00007B60D7ED027AB7EEE77A9FED736B37EE35
:100B1000067BF7EEC77BC7ED027A754B4FF00004FA
:100B2000C7E91034B868FFF709FD03460C46C7E96A
:100B30001434D7E91401FFF75BFC07EE100AD7ED78
:100B4000027A37EEC78AD7E91001FFF751FC07EEAA
:100B5000900A68EE277A17EE900AFFF7EFFC03463B
:100B60000C46C7E912340023FB651EE0FC6D631CD4
:100B7000FB65D7E914014FF00A024FF00003FFF7BD
:100B800075FCD3B23033DAB207F16003234403F8C3
:100B90004C2CD7E914014FF00A024FF00003FFF785
:100BA00065FC03460C46C7E91434D7E914342343E3
:100BB000DCD1FB6D002B13D1FB6B5A1CFA63302286
:100BC0001A7010E0FB6B5A1CFA63FA6D013A07F1D8
:100BD00060010A4412F84C2C1A70FB6D013BFB6556
:100BE000FB6D002BEEDC7B68002B6CD0FB6B5A1C82
:100BF000FA632E221A700023FB651EE0FC6D631C55
:100C0000FB65D7E912014FF00A024FF00003FFF72E
:100C10002DFCD3B23033DAB207F16003234403F87A
:100C20004C2CD7E912014FF00A024FF00003FFF7F6
:100C30001DFC03460C46C7E91234D7E9123423439E
:100C4000DCD108E0FB6D5A1CFA6507F16002134421
:100C5000302203F84C2CFA6D7B689A42F2D3FB6D7C
:100C6000002B13D1FB6B5A1CFA6330221A702AE056
:100C7000FB6B5A1CFA63FA6D013A07F160010A44F2
:100C800012F84C2C1A70FB6D013BFB65FB6D002BC1
:100C9000EEDC18E0FB6B5A1CFA632D221A70FB6B1A
:100CA0005A1CFA632D221A70FB6B5A1CFA632D2210
:100CB0001A70FB6B5A1CFA632D221A70FB6B5A1CBC
:100CC000FA632D221A70FB6B00221A7000BF643782
:100CD000BD46BDEC028BF0BD48AFBC9AF2D76A3E70
:100CE000FFFF7F7F21E6B5D621E6B5566092220050
:100CF00080969800B0B485B000AF7860914BFB60EF
:100D00007B68132B00F2178101A252F823F000BF79
:100D1000610D20006F0D2000810D2000990D200035
:100D2000AF0D2000C70D2000DF0D2000F30D2000C7
:100D3000070E20001B0E2000330E2000510E200055
:100D4000690E2000830E20009B0E2000AF0E2000B5
:100D5000C70E2000DB0E2000F90E20001B0F200024
:100D6000FB68794A1068186092889A80E3E0FB6813
:100D7000764A1C46134607CB20606160A260DAE029
:100D8000FB6873491A460B4603CB10605160198803
:100D90009B7811819372CEE0FB686E4A1C46134625
:100DA00007CB20606160A2601B782373C3E0FB68FF
:100DB00069491A460B4603CB1060516019889B782D
:100DC00011819372B7E0FB6864491A460B4603CB66
:100DD0001060516019889B7811819372ABE0FB68B9
:100DE0005F4A1C4615460FCD20606160A260E3603B
:100DF000A1E0FB685B491A460B4603CB10605160CB
:100E00001B88138197E0FB6857491A460B4603CBB2
:100E1000106051601B7813728DE0FB68534A1D46C9
:100E200014460FCC28606960AA60EB6023882B828F
:100E300081E0FB684E4A1D4614460FCC286069606D
:100E4000AA60EB602388A2782B821346AB7472E011
:100E5000FB68484A1D4614460FCC28606960AA60AA
:100E6000EB6023782B7466E0FB68434A1C4613460C
:100E700007CB20606160A2601A889B78A281A3736F
:100E800059E0FB683D4A1D4614460FCC2860696056
:100E9000AA60EB6023782B744DE0FB68384A1C464F
:100EA00015460FCD20606160A260E36043E0FB68FF
:100EB00034491A460B4603CB1060516019889B7861
:100EC0001181937237E0FB682F491A460B4603CB1A
:100ED000106051601B8813812DE0FB682B4A1D4672
:100EE00014460FCC28606960AA60EB602388A27862
:100EF0002B821346AB741EE0FB68254A1C46154640
:100F00000FCD20606160A260E36028682061AB883B
:100F1000AA79A3821346A3750DE0FB681D4A1D46FE
:100F200014460FCC28606960AA60EB6020682861D5
:100F300023792B7500BFFB6818461437BD46B0BC3B
:100F4000704700BF040100203C822200448222003E
:100F5000508222005C8222006C8222007882220071
:100F60008482220094822200A0822200AC8222008D
:100F7000C0822200D4822200E8822200F88222006D
:100F80000C8322001C832200288322003483220049
:100F9000488322006083220080B582B000AF786071
:100FA0007868FFF7A7FE0346044A32210120FFF7C5
:100FB0008CFC00BF0837BD4680BD00BF788322008F
:100FC00080B582B000AF78607868FFF793FE034683
:100FD000044A32210120FFF778FC00BF0837BD46E4
:100FE00080BD00BF9883220080B582B000AF7860DA
:100FF0007868FFF77FFE0346044A32210120FFF79D
:1010000064FC00BF0837BD4680BD00BFD08322000E
:1010100080B582B000AF78607868FFF76BFE03465A
:10102000044A32210120FFF750FC00BF0837BD46BB
:1010300080BD00BFF083220080B582B000AF786031
:101040007868FFF757FE0346044A32210120FFF774
:101050003CFC00BF0837BD4680BD00BF3084220085
:1010600080B500AF02490120FFF720FC00BF80BD22
:101070004C84220080B500AF02490120FFF716FC26
:1010800000BF80BD6084220080B500AF024901200E
:10109000FFF70CFC00BF80BD7C84220080B500AF50
:1010A00002490120FFF702FC00BF80BD98842200A6
:1010B00080B500AF02490120FFF7F8FB00BF80BDFB
:1010C000B484220080B500AF02490120FFF7EEFB97
:1010D00000BF80BDD084220080B500AF024901204E
:1010E000FFF7E4FB00BF80BDEC84220080B500AFB9
:1010F00002490120FFF7DAFB00BF80BDFC8422001B
:1011000080B485B000AF78600023FB6002E0FB682C
:101110000133FB607A68FB6813441B78002BF6D11F
:10112000FB6818461437BD465DF8047B704780B4F1
:101130008BB000AFF860B9607A603B603B6B7B625C
:1011400000233B62BB68102B01D9002377E0FB68CA
:10115000002B07DA3B68002B04D101233B62FB68BC
:101160005B42FB60FB68BA68B3FBF2F2B96801FB53
:1011700002F29B1ABB617B6A5A1C7A62BA69092A1D
:1011800004DCBA69D2B23032D2B20BE07A68002AFB
:1011900001D0412100E06121BA69D2B20A44D2B241
:1011A0000A3AD2B21A70FA68BB68B2FBF3F3FB607A
:1011B000FB68002BD6DC7A6A3B6BD31AFB6107E035
:1011C0007B6A5A1C7A6230221A70FB690133FB6118
:1011D000FA697B6B9A42F3D33B6A002B04D07B6A9B
:1011E0005A1C7A622D221A707B6A00221A707A6A5F
:1011F0003B6BD31A7B610023FB611AE03A6BFB69FE
:1012000013441B78FB743A6BFB6913447969FA69E0
:101210008A1A013A396B0A4412781A707A69FB69A2
:10122000D31A013B3A6B1344FA7C1A70FB69013301
:10123000FB617B695A08FB699A42DFD87B691846D3
:101240002C37BD465DF8047B704780B483B000AF97
:101250000346FB716346C7F800C09A6811465A6896
:101260008A1A013211461A68914201D3002308E01C
:101270009A68511C9960F97911709B6800221A7064
:10128000012318460C37BD465DF8047B704780B5D6
:1012900092B002AF7A603B6007F14803BB613861EE
:1012A000F9603B697B61C1E07B691A463B69D31AEF
:1012B00001331A46FB689A4280F0C48097F83F30A9
:1012C000252B08D097F83F2007F10C039C461046C9
:1012D000FFF7BBFFAAE0002387F83E307B685A1C6B
:1012E0007A601B7887F83F3097F83F30302B1DD15C
:1012F0007B685A1C7A601B7887F83F3097F83F303C
:10130000002B00F0A18097F83F302F2B08D997F8D9
:101310003F30392B04D897F83F30303B87F83E30C8
:101320007B685A1C7A601B7887F83F3097F83F300B
:10133000642B10D0642B07DC582B2FD0632B4FD09D
:10134000002B00F0838068E0752B04D0782B25D02B
:10135000732B51D061E03B681A1D3A601B68184638
:1013600097F83F30752B0CBF01230023DBB21A46E0
:1013700097F83E30019307F11C03009313460022B7
:101380000A21FFF7D4FEB86307F11C0207F10C0332
:101390009C46B96B104600F062F847E03B681A1DA6
:1013A0003A601B68184697F83F30582B0CBF012352
:1013B0000023DBB21A4697F83E30019307F11C0375
:1013C000009301231021FFF7B2FEB86307F11C025E
:1013D00007F10C039C46B96B104600F040F825E07D
:1013E0003B681A1D3A601B68DAB207F10C039C4691
:1013F0001046FFF72AFF19E03B681A1D3A601B6888
:101400007B63786BFFF77CFE024607F10C039C467A
:101410001146786B00F023F808E097F83F2007F1B9
:101420000C039C461046FFF710FF00BF7B685A1C58
:101430007A601B7887F83F3097F83F30002B7FF4B5
:1014400033AF04E000BF02E000BF00E000BF7B69F3
:101450001A463B69D31A18464037BD4680BD80B452
:1014600087B000AFF860B9606346C7F804C09A68F7
:1014700011465A688A1A11461A68521A511EBA68D9
:10148000914208D29A6811465A688A1A11461A6817
:10149000521A013ABA6000227A610AE09A68511C35
:1014A0009960F86879690144097811707A690132A4
:1014B0007A617969BA689142F0D39B6800221A7008
:1014C000BB6818461C37BD465DF8047B70470000BA
:1014D00080B582B000AF01220849094821F01CF90B
:1014E0000346FB71FB79002B03D0FB791846FFF70D
:1014F00053FD00BF0837BD4680BD00BF644E0120CC
:101500009850012080B584B000AF03463960FB716C
:101510001346BB71FB794FF40C7202FB03F30A4ACA
:101520001344BA793968184621F05AF90346FB7317
:10153000FB7B002B03D0FB7B1846FFF741FDFB7BB9
:1015400018461037BD4680BD3801002080B588B0F0
:1015500000AF0346B9607A60FB73FB7B4FF40C72FB
:1015600002FB03F30D4A981807F114037A68B9686F
:1015700021F010FB0346FB76FB7E002B07D0FB7EA1
:101580001846FFF71DFDFB7E5B42FB6101E07B69B6
:10159000FB61FB6918462037BD4680BD380100203D
:1015A00080B588B000AF0346B9607A60FB73FB7BFF
:1015B0004FF40C7202FB03F30D4A981807F1140361
:1015C0007A68B96821F054FC0346FB76FB7E002B59
:1015D00007D0FB7E1846FFF707FDFB7E5B42FB61F1
:1015E00001E07B69FB61FB6918462037BD4680BD81
:1015F0003801002080B584B000AF0346FB71FB7951
:101600004FF40C7202FB03F3094A1344184621F00D
:101610005CFE0346FB73FB7B002B03D0FB7B184671
:10162000FFF7F6FCFB7B18461037BD4680BD00BFB8
:101630003801002080B5CAB000AF3B1D18603B46A2
:10164000196007F10C023B1D1146186821F06CFE71
:10165000034687F8273197F82731002B05D097F8F4
:1016600027311846FFF7E8FC05E007F10C031A687C
:101670003B461B681A6097F82731184607F59477A0
:10168000BD4680BD80B483B000AF6346C7F804C0D8
:101690005A68002A05DA1B680033012B0BD8012396
:1016A0000AE05A68002A06DD1B68002B01D0022BD5
:1016B00001D1012300E0002318460C37BD465DF838
:1016C000047B704780B58CB000AF3A600A46FA716F
:1016D00007F138027A613861FB600A23FB6201235B
:1016E000BB62604B1B687B623B69002B05DA3B6980
:1016F0005B423B622D23FB7703E03B693B622B237C
:10170000FB773A6AFB6A9A4280F29380BA6A3B6836
:101710009A4257DA534B1A683B681344C72B04DDCF
:10172000504B00221A6000237B62FB68032B24D0FD
:10173000FB79202B08D14B4B1B685A1C49490A6086
:101740004949FA79CA5418E007F10C039C46FFF79F
:1017500099FF0346012B08D1424B1B685A1C414993
:101760000A604149FA7FCA5407E03E4B1B685A1C85
:101770003C490A603C4A2021D1543A68BB6AD31ADA
:10178000BB61384B1B68384A1344F979BA6918466B
:1017900024F0CFFE334B1A68BB691344314A1360FF
:1017A000FB79202B35D107F10C039C46FFF76AFF2C
:1017B0000346012B2DD12B4B1B68013B2A49FA7F95
:1017C000CA5426E0274B1A68BB6A1344C72B04DDB2
:1017D000244B00221A6000237B62FB68032B18D085
:1017E00007F10C039C46FFF74DFF0346012B08D180
:1017F0001C4B1B685A1C1B490A601B49FA7FCA54C0
:1018000007E0184B1B685A1C16490A60164A20212B
:10181000D154144B1B68144A13440A221946386ADF
:1018200024F07AFE0F4B1A68BB6A13440D4A13600A
:1018300009E0FA6A13469B0013445B00FB62BB6A33
:101840000133BB625DE7074B1B685A1C05490A6000
:10185000054A0021D1547B6A034A134418463037A5
:10186000BD4680BD441800201817002080B483B006
:1018700000AF6346C7F804C0D3ED017AF5EEC07A35
:10188000F1EE10FA05D51B680033012B0FD80123A8
:101890000EE0D3ED017AF5EEC07AF1EE10FA06DD36
:1018A0001B68002B01D0022B01D1012300E0002393
:1018B00018460C37BD465DF8047B704780B58EB086
:1018C00000AFF0EE407AB9607B600346FB7307F12E
:1018D0004003FB61C7ED067A7A610A237B6301232B
:1018E0003B63704B1B68FB62D7ED067AF5EEC07A5E
:1018F000F1EE10FA09D5D7ED067AF1EE677AC7ED69
:101900000A7A2D2387F8273004E0BB69BB622B23BA
:1019100087F827307B6B07EE903AB8EEE77AD7ED81
:101920000A7AB4EEE77AF1EE10FA40F3A1803A6B4E
:10193000BB689A425CDA5B4B1A68BB681A447B68E6
:1019400013440133C72B04DD564B00221A600023D9
:10195000FB627B69032B25D0FB7B202B08D1514BED
:101960001B685A1C4F490A604F49FA7BCA5419E058
:1019700007F114039C46FFF779FF0346012B09D1B9
:10198000484B1B685A1C47490A60474997F827206B
:10199000CA5407E0434B1B685A1C42490A60424A3A
:1019A0002021D154BA683B6BD31A3B623D4B1B6874
:1019B0003D4A1344F97B3A6A184624F0BAFD394B84
:1019C0001A683B6A1344374A1360FB7B202B3AD1D9
:1019D00007F114039C46FFF749FF0346012B32D160
:1019E000304B1B68013B304997F82720CA542AE046
:1019F0002C4B1A683B6B1A447B6813440133C72B8A
:101A000004DD284B00221A600023FB627B69032B54
:101A100019D007F114039C46FFF728FF0346012B5A
:101A200009D1204B1B685A1C1E490A601E4997F8B1
:101A30002720CA5407E01B4B1B685A1C19490A602F
:101A4000194A2021D154174B1B68174A13447A684E
:101A5000114697ED0A0A1846FEF7BAFF3A6B7B6803
:101A600013445A1C0F4B1B6813440E4A136009E0C1
:101A70007A6B13469B0013445B007B633B6B013323
:101A80003B6347E7074B1B685A1C06490A60064A36
:101A90000021D154FB6A044A134418463837BD4626
:101AA00080BD00BF44180020181700200FB480B577
:101AB00086B000AF07F124037B601C4B00221A7034
:101AC00000237B6125E07B681A1D7A601B683B61FF
:101AD0003869FEF7B5FB0346FB601448FEF7B0FB20
:101AE0000346BB60BA68FB681344632B08DDBB6820
:101AF000C3F163031A4639690C4824F030FD0CE049
:101B0000FB681A463969094824F029FD7B690133CD
:101B10007B617A693B6A9A42D5DB044B18461837D9
:101B2000BD46BDE8804004B0704700BFE01700200C
:101B300080B485B000AF786039607B681B88FB811A
:101B40003B681B88BB817B68BA891A803B68FA892D
:101B50001A8000BF1437BD465DF8047B7047000053
:101B600080B582B000AF78607B68092B06DC23F07B
:101B7000F5FE0146034A7B6842F8231000BF083790
:101B8000BD4680BD4818002080B586B002AF7860A1
:101B900039607B68092B1BDC23F0E0FE0346FB6009
:101BA0003B681B78002B0CD0FA680C497B6851F815
:101BB0002330D31A00933B68094A14210120FEF711
:101BC00084FEFA6805497B6851F82330D31A00E097
:101BD000002318461037BD4680BD00BF48180020BE
:101BE0002085220080B588B000AFF860B9607A60C7
:101BF0003B60BB683A6BD31A7B61FB6A023B3B617B
:101C0000FB68002B1AD00023FB6112E079680120E9
:101C100003F01AF83968386903F016F8796801207A
:101C200003F012F8F96AB86A03F022F9FB6901338C
:101C3000FB61FA697B699A42E8DB1BE00023BB6128
:101C400014E07968012002F0FFFF0C4B1A683B6931
:101C500013440A4A13607968012002F0F5FFF96A1B
:101C6000B86A03F005F9BB690133BB61BA697B69E6
:101C70009A42E6DB00BF2037BD4680BD70180020C9
:101C800080B582B000AF78606346C7F800C01A69BB
:101C9000002A05D0DB681946786802F0D5FF05E018
:101CA000044B1A687B681344024A136000BF08376C
:101CB000BD4680BD7018002080B592B004AFF960B9
:101CC000BA607B60796DBA6D07F14003FB627862A0
:101CD0003962FA61FB691B0EDBB287F828301B4BB7
:101CE000D3ED007A3B6AB0EE670A1946386D05F00D
:101CF00087FC7863154BD3ED017A3B6AB0EE670A37
:101D00001946386D05F07CFC386397F82830002BB5
:101D100003D097F82830FF2B1AD10C4BD3ED007A63
:101D2000FB69B0EE670A1946386D05F069FC034699
:101D30007B61064BD3ED017AFB69B0EE670A194669
:101D4000386D05F05DFC0346BB6101E050200020CA
:101D50007B6C3A6CB968F86803F022F807F1140359
:101D60009C46002000F0F0F9BB6C0A3B396D184628
:101D700002F06AFF07F114039C46002000F06CFAA1
:101D8000B96CB86803F074F807F114039C4601209D
:101D900000F0DAF9396D022002F056FF796B01206C
:101DA00002F052FF396B012002F04EFFBB6C0E3B7C
:101DB0001A4607F114039C461046FFF761FF396B82
:101DC000012002F041FF796B012002F03DFF396DE7
:101DD000022002F039FF07F114039C46012000F0B5
:101DE0003BFAB96CB86803F043F807F114039C465A
:101DF000022000F0A9F9396D012002F025FF796B6E
:101E0000012002F021FFBB6C083B1A4607F11403C6
:101E10009C461046FFF734FF796B012002F014FF57
:101E2000396D012002F010FF07F114039C460220D7
:101E300000F012FAB96CB86803F01AF807F114034D
:101E40009C46032000F080F9396D012002F0FCFE71
:101E5000796B012002F0F8FEBB6C063B1A4607F1D5
:101E600014039C461046FFF70BFF796B012002F02C
:101E7000EBFE396D012002F0E7FE07F114039C46EA
:101E8000032000F0E9F9B96CB86802F0F1FF07F13E
:101E900014039C46042000F057F9396D012002F02C
:101EA000D3FEBB6C043B1A4607F114039C46104654
:101EB000FFF7E6FE396D012002F0C6FE07F11403BC
:101EC0009C46042000F0C8F9B96CB86802F0D0FF55
:101ED000396D012002F0B8FE796B012002F0B4FEEA
:101EE000BB6C043B1A4607F114039C461046FFF7EF
:101EF000C7FE796B012002F0A7FE396D012002F0C8
:101F0000A3FEB96CB86802F0B3FF396D012002F08E
:101F10009BFE396B012002F097FEBB6C043B1A4616
:101F200007F114039C461046FFF7AAFE396B012007
:101F300002F08AFE396D012002F086FEB96CB868A5
:101F400002F096FF786A3A6AFB6C0293BB6C0193CD
:101F5000BB68009313463A6D0E21FFF743FE396DBF
:101F6000012002F071FE396B012002F06DFEBB6CA6
:101F7000043B1A4607F114039C461046FFF780FE07
:101F8000396B012002F060FE396D012002F05CFE29
:101F9000B96CB86802F06CFF396D012002F054FE94
:101FA000796B012002F050FEBB6C043B1A4607F12E
:101FB00014039C461046FFF763FE796B012002F084
:101FC00043FE396D012002F03FFEB96CB86802F0A3
:101FD0004FFF07F114039C46042000F0B5F8396D5B
:101FE000012002F031FEBB6C043B1A4607F11403DA
:101FF0009C461046FFF744FE396D012002F024FE96
:1020000007F114039C46042000F026F9B96CB86867
:1020100002F02EFF07F114039C46032000F094F811
:10202000396D012002F010FE796B012002F00CFEE8
:10203000BB6C063B1A4607F114039C461046FFF79B
:102040001FFE796B012002F0FFFD396D012002F0C7
:10205000FBFD07F114039C46032000F0FDF8B96C6A
:10206000B86802F005FF07F114039C46022000F057
:102070006BF8396D012002F0E7FD796B012002F069
:10208000E3FDBB6C083B1A4607F114039C4610465F
:10209000FFF7F6FD796B012002F0D6FD396D0120C6
:1020A00002F0D2FD07F114039C46022000F0D4F8A0
:1020B000B96CB86802F0DCFE07F114039C460120FD
:1020C00000F042F8396D022002F0BEFD796B01206C
:1020D00002F0BAFD396B012002F0B6FDBB6C0E3B7D
:1020E0001A4607F114039C461046FFF7C9FD396BE9
:1020F000012002F0A9FD796B012002F0A5FD396DE8
:10210000022002F0A1FD07F114039C46012000F01B
:10211000A3F8B96CB86802F0ABFE07F114039C4653
:10212000002000F011F8BB6C0A3B396D184602F034
:102130008BFD07F114039C46002000F08DF800BFD2
:102140003837BD4680BD00BF90B583B000AF786022
:102150006446C7F800C0237D002B02D0237DFF2BEF
:1021600043D17B68042B6FD801A252F823F000BF43
:1021700085212000A5212000BB212000D1212000A5
:10218000DD212000A3681946032002F05DFD63688D
:102190001946012002F058FD23681946012002F07B
:1021A00053FD21E0A3681946022002F04DFD23688B
:1021B0001946012002F048FD16E0A36819460120E7
:1021C00002F042FD23681946012002F03DFD0BE0BC
:1021D00063681946012002F037FD05E023681946BF
:1021E000012002F031FD00BF2EE07B68042B2CD8CB
:1021F00001A252F823F000BF0D2220001922200076
:1022000025222000312220003D222000114B1B6896
:102210000533104A136018E00E4B1B6803330D4A58
:10222000136012E00B4B1B6802330A4A13600CE088
:10223000084B1B680133074A136006E0054B1B6817
:102240000133044A136000E000BF00BF0C37BD46F5
:1022500090BD00BF7018002090B583B000AF7860CB
:102260006446C7F800C0237D002B02D0237DFF2BDE
:1022700043D17B68042B6FD801A252F823F000BF32
:1022800095222000B5222000CB222000E122200050
:10229000ED22200023681946012002F0D5FC636876
:1022A0001946012002F0D0FCA3681946032002F071
:1022B000CBFC21E023681946012002F0C5FCA3688D
:1022C0001946022002F0C0FC16E0236819460120DE
:1022D00002F0BAFCA3681946012002F0B5FC0BE03D
:1022E00063681946012002F0AFFC05E02368194637
:1022F000012002F0A9FC00BF2EE07B68042B2CD843
:1023000001A252F823F000BF1D2320002923200042
:1023100035232000412320004D232000114B1B6852
:102320000533104A136018E00E4B1B6803330D4A47
:10233000136012E00B4B1B6802330A4A13600CE077
:10234000084B1B680133074A136006E0054B1B6806
:102350000133044A136000E000BF00BF0C37BD46E4
:1023600090BD00BF7018002080B588B000AF7861C4
:10237000396187ED030A7B6013467B817B8997ED8A
:10238000030A3A697969184602F0B0FD0023FB613F
:1023900012E07B68FA6902FB03F31A460A4B1B68DA
:1023A0001344FA690132094951F82220084941F8D9
:1023B0002320FB690133FB617A89FB699A42E8DCDF
:1023C00000BF2037BD4680BD70180020781800205F
:1023D000000000C080B485B000AF786039603B6811
:1023E0001A787B681A700023FB6011E0FB680133E8
:1023F0001A467B6813443A6812781146FA688A1ABA
:1024000011463A680A4412781A70FB680133FB607F
:102410003B681B781A46FB689A42E7DC00BF14371A
:10242000BD465DF8047B704780B400AF00BFBD4679
:102430005DF8047B7047000090B58BB000AFF86189
:102440007B610B467B8313463B83294C07F10803D2
:102450007A69F969184602F0BDFC224607F10803C3
:1024600093E8030082E80300214B5A683B8BD31AA0
:1024700007EE903AB8EEE77B1D4B1A687B8BD31AB8
:1024800006EE903AB8EEE66BB0EE461BB0EE470BA8
:1024900024F006F9B0EE405B9FED136B85EE067BF2
:1024A000F7EEC77BC7ED097AD7ED097AF5EEC07A6A
:1024B000F1EE10FA0CD5D7ED097A9FED0E7A77EE92
:1024C000877AFCEEE77AC7ED017ABB889BB207E01A
:1024D000D7ED097AFCEEE77AC7ED017ABB889BB2AB
:1024E00018462C37BD4690BDAF99D76C40DF913F61
:1024F000482000200000B44390B58BB000AF786155
:102500003961FA60BB607B69002B76D0BB6B07EE4C
:10251000903AB8EEE77B9FEDB86B27EE067BB0EE06
:10252000470B24F08DF8B0EE407BF7EEC77BB44B41
:10253000C3ED007AB24BD3ED007AF5EEC07AF1EE3E
:1025400010FA07DDAE4B93ED007AF7EE006AC6EEA7
:10255000877A08E0AA4BD3ED007AB1EE677AF7EEFE
:10256000006AC6EE877AA74BC3ED007ABB6B002BDF
:1025700004DDBB6B2D2B01DC012300E2BB6B2D2B9B
:1025800004DDBB6B5A2B01DC0223F8E1BB6B5A2B39
:1025900004DDBB6B872B01DC0323F0E1BB6B872BD6
:1025A00004DDBB6BB42B01DC0423E8E1BB6BB42B73
:1025B00004DDBB6BE12B01DC0523E0E1BB6BE12B10
:1025C00005DDBB6BB3F5877F01DC0623D7E1BB6B71
:1025D000B3F5877F05DDBB6BB3F59E7F01DA07237B
:1025E000CDE1BB6BB3F59E7FC0F2C881BB6BB3F589
:1025F000B47F00F3C3810823C1E13969824C3B46B3
:10260000FA6B184602F0E6FB22463B4693E80300CD
:1026100082E803007C4B1A68FB68D31A07EE903AF5
:10262000F8EEE77AC7ED097A774B5A68BB68D31A98
:1026300007EE903AF8EEE77AC7ED087A704B93ED23
:10264000007AD7ED097A67EE277AC7ED077ABB6B78
:10265000002B2DDDBB6B2D2B2ADC97ED087AD7EDF7
:10266000077AB4EEE77AF1EE10FA01D5002386E19D
:1026700097ED087AD7ED077AB4EEE77AF1EE10FA23
:1026800014DB604B93ED007AD7ED097A37EE277AA9
:102690005B4BD3ED007A27EE277AD7ED087AB4EEBC
:1026A000E77AF1EE10FA01DD012368E1022366E129
:1026B000BB6B2D2B2CDDBB6B5A2B29DC97ED087ADD
:1026C000D7ED077AB4EEE77AF1EE10FA01D50023E0
:1026D00055E197ED087AD7ED077AB4EEE77AF1EE97
:1026E00010FA13DBD7ED097AB7EE007A37EE877A66
:1026F000434BD3ED007A27EE277AD7ED087AB4EE74
:10270000E77AF1EE10FA01DD012338E1022336E128
:10271000BB6B5A2B2CDDBB6B872B29DC97ED087A22
:10272000D7ED077AB4EEE77AF1EE10FA01DD002377
:1027300025E197ED087AD7ED077AB4EEE77AF1EE66
:1027400010FA13D8D7ED097AB7EE007A37EE877A08
:102750002B4BD3ED007A27EE277AD7ED087AB4EE2B
:10276000E77AF1EE10FA01D5012308E1022306E130
:10277000BB6B872B2DDDBB6BB42B2ADC97ED087A66
:10278000D7ED077AB4EEE77AF1EE10FA01DD002317
:10279000F5E097ED087AD7ED077AB4EEE77AF1EE37
:1027A00010FA14D8174B93ED007AD7ED097A37EE6B
:1027B000277A134BD3ED007A27EE277AD7ED087AE4
:1027C000B4EEE77AF1EE10FA01D50123D7E0022347
:1027D000D5E0BB6BB42B39DDBB6BE12B36DC97ED61
:1027E000087AD7ED077AB4EEE77AF1EE10FA0DD554
:1027F0000223C4E0AFF30080AF99D76C40DF913F74
:1028000004230020082300204820002097ED087AA8
:10281000D7ED077AB4EEE77AF1EE10FA14DB5A4BF3
:1028200093ED007AD7ED097A37EE277A574BD3ED3F
:10283000007A27EE277AD7ED087AB4EEE77AF1EE40
:1028400010FA01DD01239AE0002398E0BB6BE12B35
:102850002DDDBB6BB3F5877F29DC97ED087AD7EDCB
:10286000077AB4EEE77AF1EE10FA01D5022386E09A
:1028700097ED087AD7ED077AB4EEE77AF1EE10FA21
:1028800013DBD7ED097AB7EE007A37EE877A3F4B44
:10289000D3ED007A27EE277AD7ED087AB4EEE77AFF
:1028A000F1EE10FA01DD012369E0002367E0BB6B64
:1028B000B3F5877F2DDDBB6BB3F59E7F29DA97EDEE
:1028C000087AD7ED077AB4EEE77AF1EE10FA01DD77
:1028D000022354E097ED087AD7ED077AB4EEE77A51
:1028E000F1EE10FA13D8D7ED097AB7EE007A37EE89
:1028F000877A264BD3ED007A27EE277AD7ED087A30
:10290000B4EEE77AF1EE10FA01D5012337E00023A7
:1029100035E0BB6BB3F59E7F2EDBBB6BB3F5B47FAD
:102920002ADC97ED087AD7ED077AB4EEE77AF1EE74
:1029300010FA01DD022322E097ED087AD7ED077A3D
:10294000B4EEE77AF1EE10FA14D80F4B93ED007A5B
:10295000D7ED097A37EE277A0C4BD3ED007A27EEC4
:10296000277AD7ED087AB4EEE77AF1EE10FA01D5BE
:10297000012304E0002302E0032300E000231846C3
:102980002C37BD4690BD00BF082300200423002043
:1029900090B58DB000AF78613961FA60C84A3B6983
:1029A00092339B00134404331B68FB62C44A3B69A7
:1029B0009C339B00134404331B68BB623B690133A7
:1029C000BF4A03F582735B0013449B88FB847969DB
:1029D000BC4C3B46FA68184602F0FCF922463B46DE
:1029E00093E8030082E80300B64B1B68B44AB2F8D0
:1029F00008229B1A07EE903AF8EEE77AC7ED087ABC
:102A0000B04B5B68AE4AB2F80A229B1A07EE903AC6
:102A1000F8EEE77AC7ED077A97ED0B7AD7ED087AEB
:102A200067EE277AC7ED067AFB8C002B2BD0FB8C48
:102A30002D2B28D897ED077AD7ED067AB4EEE77AF2
:102A4000F1EE10FA01D5002370E197ED077AD7ED8A
:102A5000067AB4EEE77AF1EE10FA12DB97ED087A17
:102A6000D7ED0A7A37EE277AD7ED0B7A27EE277A59
:102A7000D7ED077AB4EEE77AF1EE10FA01DD012323
:102A800054E1022352E1FB8C2D2B2BD9FB8C5A2BCA
:102A900028D897ED077AD7ED067AB4EEE77AF1EE0B
:102AA00010FA01D5002341E197ED077AD7ED067AB8
:102AB000B4EEE77AF1EE10FA12DBD7ED087AB7EE52
:102AC000007A37EE877AD7ED0B7A27EE277AD7EDA3
:102AD000077AB4EEE77AF1EE10FA01DD012325E181
:102AE000022323E1FB8C5A2B2BD9FB8C872B28D874
:102AF00097ED077AD7ED067AB4EEE77AF1EE10FAA1
:102B000001DD002312E197ED077AD7ED067AB4EEE6
:102B1000E77AF1EE10FA12D8D7ED087AB7EE007A1C
:102B200037EE877AD7ED0B7A27EE277AD7ED077A3B
:102B3000B4EEE77AF1EE10FA01D50123F6E00223B4
:102B4000F4E0FB8C872B2BD9FB8CB42B28D897ED8A
:102B5000077AD7ED067AB4EEE77AF1EE10FA01DDE6
:102B60000023E3E097ED077AD7ED067AB4EEE77A33
:102B7000F1EE10FA12D897ED087AD7ED0A7A37EE0F
:102B8000277AD7ED0B7A27EE277AD7ED077AB4EEBE
:102B9000E77AF1EE10FA01D50123C7E00223C5E080
:102BA000FB8CB42B2BD9FB8CE12B28D897ED077A23
:102BB000D7ED067AB4EEE77AF1EE10FA01D50223EA
:102BC000B4E097ED077AD7ED067AB4EEE77AF1EE46
:102BD00010FA12DB97ED087AD7ED0A7A37EE277AEA
:102BE000D7ED0B7A27EE277AD7ED077AB4EEE77A9E
:102BF000F1EE10FA01DD012398E0002396E0FB8C52
:102C0000E12B2CD9FB8CB3F5877F28D897ED077A79
:102C1000D7ED067AB4EEE77AF1EE10FA01D5022389
:102C200084E097ED077AD7ED067AB4EEE77AF1EE15
:102C300010FA12DBD7ED087AB7EE007A37EE877A12
:102C4000D7ED0B7A27EE277AD7ED077AB4EEE77A3D
:102C5000F1EE10FA01DD012368E0002366E0FB8C51
:102C6000B3F5877F30D9FB8CB3F59E7F2CD297EDDF
:102C7000077AD7ED067AB4EEE77AF1EE10FA01DDC5
:102C8000022353E097ED077AD7ED067AB4EEE77AA0
:102C9000F1EE10FA12D8D7ED087AB7EE007A37EED7
:102CA000877AD7ED0B7A27EE277AD7ED077AB4EE3D
:102CB000E77AF1EE10FA01D5012337E0002335E081
:102CC0005C20002048200020FB8CB3F59E7F2CD395
:102CD000FB8CB3F5B47F28D897ED077AD7ED067A49
:102CE000B4EEE77AF1EE10FA01DD02231EE097ED73
:102CF000077AD7ED067AB4EEE77AF1EE10FA12D839
:102D000097ED087AD7ED0A7A37EE277AD7ED0B7A66
:102D100027EE277AD7ED077AB4EEE77AF1EE10FACC
:102D200001D5012302E0002300E0032318463437D5
:102D3000BD4690BD90B58DB000AF78613961FA6045
:102D4000BB60C94AFB6892339B00134404331B6881
:102D5000FB62C54AFB689C339B00134404331B6829
:102D6000BB62FB680133C04A03F582735B00134406
:102D70009B88FB847969BD4C3846BB683A6902F090
:102D800051F822463B4693E8030082E80300B74B24
:102D90001B68B54AB2F808229B1A07EE903AF8EE83
:102DA000E77AC7ED087AB14B5B68AF4AB2F80A22FE
:102DB0009B1A07EE903AF8EEE77AC7ED077A97ED9F
:102DC0000B7AD7ED087A67EE277AC7ED067AFB8C87
:102DD000002B2BD0FB8C2D2B28D897ED077AD7ED25
:102DE000067AB4EEE77AF1EE10FA01D5002371E12C
:102DF00097ED077AD7ED067AB4EEE77AF1EE10FA9E
:102E000012DB97ED087AD7ED0A7A37EE277AD7EDFD
:102E10000B7A27EE277AD7ED077AB4EEE77AF1EE50
:102E200010FA01DD012355E1022353E1FB8C2D2B28
:102E30002BD9FB8C5A2B28D897ED077AD7ED067A39
:102E4000B4EEE77AF1EE10FA01D5002342E197EDF6
:102E5000077AD7ED067AB4EEE77AF1EE10FA12DBD4
:102E6000D7ED087AB7EE007A37EE877AD7ED0B7A8E
:102E700027EE277AD7ED077AB4EEE77AF1EE10FA6B
:102E800001DD012326E1022324E1FB8C5A2B2BD9FF
:102E9000FB8C872B28D897ED077AD7ED067AB4EE0E
:102EA000E77AF1EE10FA01DD002313E197ED077ADE
:102EB000D7ED067AB4EEE77AF1EE10FA12D8D7ED34
:102EC000087AB7EE007A37EE877AD7ED0B7A27EEDD
:102ED000277AD7ED077AB4EEE77AF1EE10FA01D54A
:102EE0000123F7E00223F5E0FB8C872B2BD9FB8C29
:102EF000B42B28D897ED077AD7ED067AB4EEE77AA7
:102F0000F1EE10FA01DD0023E4E097ED077AD7ED4A
:102F1000067AB4EEE77AF1EE10FA12D897ED087A55
:102F2000D7ED0A7A37EE277AD7ED0B7A27EE277A94
:102F3000D7ED077AB4EEE77AF1EE10FA01D5012366
:102F4000C8E00223C6E0FB8CB42B2BD9FB8CE12B11
:102F500028D897ED077AD7ED067AB4EEE77AF1EE46
:102F600010FA01D50223B5E097ED077AD7ED067A7E
:102F7000B4EEE77AF1EE10FA12DB97ED087AD7EDAE
:102F80000A7A37EE277AD7ED0B7A27EE277AD7ED34
:102F9000077AB4EEE77AF1EE10FA01DD012399E049
:102FA000002397E0FB8CE12B2CD9FB8CB3F5877FBA
:102FB00028D897ED077AD7ED067AB4EEE77AF1EEE6
:102FC00010FA01D5022385E097ED077AD7ED067A4E
:102FD000B4EEE77AF1EE10FA12DBD7ED087AB7EE2D
:102FE000007A37EE877AD7ED0B7A27EE277AD7ED7E
:102FF000077AB4EEE77AF1EE10FA01DD012369E019
:10300000002367E0FB8CB3F5877F31D9FB8CB3F5E8
:103010009E7F2DD297ED077AD7ED067AB4EEE77A48
:10302000F1EE10FA01DD022354E097ED077AD7EDB7
:10303000067AB4EEE77AF1EE10FA12D8D7ED087AF4
:10304000B7EE007A37EE877AD7ED0B7A27EE277A3C
:10305000D7ED077AB4EEE77AF1EE10FA01D5012345
:1030600038E0002336E000BF5C200020482000202C
:10307000FB8CB3F59E7F2CD3FB8CB3F5B47F28D8A3
:1030800097ED077AD7ED067AB4EEE77AF1EE10FA0B
:1030900001DD02231EE097ED077AD7ED067AB4EE44
:1030A000E77AF1EE10FA12D897ED087AD7ED0A7A9E
:1030B00037EE277AD7ED0B7A27EE277AD7ED077A06
:1030C000B4EEE77AF1EE10FA01D5012302E0002315
:1030D00000E0032318463437BD4690BD80B590B05C
:1030E00000AF78613961FA60BB6087ED010AC7ED16
:1030F000000A7B6D1B78FB637B6D01331B78BB6320
:1031000002237B633B6D002B40F09381B7E0BB6BE8
:103110003B6234E078693B691B78FA6C1946FFF72B
:1031200037FC0346FB77FB7F002B02D0FB7F012B94
:1031300012D13B691B78002B0CD13B6901221A701C
:10314000974B1B685A1C96490A609649FA6841F8E1
:10315000232014E0012373E13B691B78002B05D188
:103160008F4B1B6801338E4A136008E08C4B1B6841
:103170005A1C8B490A608B49FA6841F82320BB6BC3
:103180005A1EBA63002BC5D1FB6B002B3CD07B6B66
:103190005A1C7A631A467B6D13441B78BB633B69E8
:1031A0001B78012B30D197ED010ABA68F968B86B2A
:1031B00001F09CFE00233B631FE07869784B1A689E
:1031C0003B6B134419463B691B781A46FB6CFFF7AF
:1031D000B1FD0346FB77FB7F022B14D1704B1A68BD
:1031E0003B6B13443A6B01326F4951F822206D4911
:1031F00041F823203B6B01333B636B4B1A683B6BFD
:103200009A42DAD800E000BF654B1A68FB6C1344A1
:10321000634A13603B691B78012B30D197ED000A9C
:10322000BA6CF968386A01F061FE0023FB6221E0A4
:1032300078695B4B1A68FB6AD31A013B19463B69F4
:103240001B781A46FB6CFFF775FD0346FB77FB7F87
:10325000022B14D1524B1A68FB6AD31A013BFA6A4B
:103260000132514951F822204E4941F82320FB6A8E
:103270000133FB624C4B1A68FB6A9A42D8D8FB6B4D
:103280005A1EFA63002B7FF442AFD8E0BB6B3B625F
:103290003BE078693B691B78FA6C1946FFF778FBCD
:1032A0000346FB77FB7F002B02D0FB7F012B15D160
:1032B0003B691B78002B0FD13B6901221A70384BF8
:1032C0001B683849FA6841F82320354B1A68FB6CB3
:1032D0001344334A136018E00123B1E03B691B78C3
:1032E000002B06D12E4B1A68FB6C13442C4A13603A
:1032F0000BE02B4B1B682B49FA6841F82320284B25
:103300001A68FB6C1344264A1360BB6B5A1EBA63DF
:10331000002BBED1FB6B002B49D07B6B5A1C7A6310
:103320001A467B6D13441B78BB633B691B78012BEA
:103330003DD197ED000ABA6CF968B86B01F0D6FD83
:103340000023BB6225E07869BB6AFA6C02FB03F2DA
:10335000134B1B68134419463B691B781A46FB6CD8
:10336000FFF7E8FC0346FB77FB7F022B1ED1BB6A0D
:10337000FA6C02FB03F20A4B1B681344BA6A01326F
:10338000094951F82220074941F82320BB6A01333B
:10339000BB62054B1A68BB6A9A42D4D807E000BFEB
:1033A00070180020000000C07818002000BF264BD5
:1033B0001B680133244A13603B691B78012B38D109
:1033C00097ED010ABA68F968386A01F08FFD0023A9
:1033D0007B6229E078691C4B1A687B6A01331946C5
:1033E000FB6C03FB01F3D31A19463B691B781A46A1
:1033F000FB6CFFF79FFC0346FB77FB7F002B18D18C
:10340000114B1A687B6A01331946FB6C03FB01F30D
:10341000D31A7A6A01320D4951F822200C4941F839
:1034200023207B6A01337B62084B1A687B6A9A42CD
:10343000D0D8FB6B5A1EFA63002B7FF427AF002312
:1034400018464037BD4680BD70180020781800200F
:10345000000000C080B590B000AF78613961FA60BB
:10346000BB6087ED010AC7ED000A7B6D1B78FB632B
:103470007B6D01331B78BB6302237B633B6D002BA9
:1034800040F03B8192E0BB6B3B6234E078693B6982
:103490001B78FA6C1946FFF77BFA0346FB77FB7F34
:1034A000002B02D0FB7F012B12D13B691B78002B34
:1034B0000CD13B6901221A70954B1B685A1E944926
:1034C0000A609449FA6841F8232014E001231BE1C3
:1034D0003B691B78002B05D18D4B1B68013B8C4A47
:1034E000136008E08A4B1B685A1E89490A608949A3
:1034F000FA6841F82320BB6B5A1EBA63002BC5D172
:10350000FB6B002B29D07B6B5A1C7A631A467B6DB0
:1035100013441B78BB633B691B78012B1DD197EDCE
:10352000000ABA6CF968B86B01F0E0FC00233B6359
:103530000EE0774B1A683B6BD31A3A6B013276492F
:1035400051F82220734941F823203B6B01333B6340
:10355000714B1A683B6B9A42EBD86D4B1A68FB6C47
:1035600013446B4A13603B691B78012B1ED197ED06
:10357000010ABA68F968386A01F0B8FC0023FB62F6
:103580000FE0634B1A68FB6A13440133FA6A013295
:10359000614951F822205F4941F82320FB6A013339
:1035A000FB625D4B1A68FB6A9A42EAD8FB6B5A1EB3
:1035B000FA63002B7FF467AFA5E0BB6B3B623BE097
:1035C00078693B691B78FA6C1946FFF7E1F9034605
:1035D000FB77FB7F002B02D0FB7F012B15D13B69D2
:1035E0001B78002B0FD13B6901221A70484B1B68D6
:1035F0004849FA6841F82320454B1A68FB6C13448C
:10360000434A136018E001237EE03B691B78002BDE
:1036100006D13F4B1A68FB6C13443D4A13600BE024
:103620003B4B1B683B49FA6841F82320384B1A682A
:10363000FB6C1344364A1360BB6B5A1EBA63002BF3
:10364000BED1FB6B002B2CD07B6B5A1C7A631A46C5
:103650007B6D13441B78BB633B691B78012B20D126
:1036600097ED010ABA68F968B86B01F03FFC0023D6
:10367000BB6211E0BB6AFA6C02FB03F2244B1B68CD
:103680001344BA6A0132244951F82220214941F8F1
:103690002320BB6A0133BB621F4B1A68BB6A9A4284
:1036A000E8D81B4B1B68013B194A13603B691B7828
:1036B000012B22D197ED000ABA6CF968386A01F043
:1036C00015FC00237B6213E0114B1A687B6A0133FF
:1036D0001946FB6C03FB01F3D31A7A6A01320E49D7
:1036E00051F822200B4941F823207B6A01337B6289
:1036F000094B1A687B6A9A42E6D8FB6B5A1EFA633A
:10370000002B7FF45AAF002318464037BD4680BDDA
:1037100070180020000000C0781800202DE9F04348
:103720008BB000AF7860E046C7F800C068468146BD
:10373000786878627648B0F80C020546013D7D61F4
:1037400085B24FF00006F20042EA5572E90081B2FC
:103750004FF00002D40044EA5174CB000346073313
:10376000DB08DB00ADEB030D6B4600333B61002350
:103770003B62C1E0674B1B68674A52F82320D8F8C8
:103780000C309A421CD10023FB6112E0D8F80830BB
:103790001846D8F804301A46F969FFF7F9F80346D5
:1037A00019463A69FB6913440A461A70FB690133EA
:1037B000FB61574BB3F80C321A46FB699A42E5DCC1
:1037C000544B1B68544A52F82320D8F80C309A42C4
:1037D00063D10023BB6152E0BB6902334C4A03F55D
:1037E00082735B0013449B881946BB690133484AC6
:1037F00003F582735B0013449B88CB1AFB60FB6864
:10380000002B02DDFB68B42B03DDFB6813F1B40F62
:1038100018DA3A69BB6913441B78002B2BD1BB69BA
:1038200001333A69D35C022B25D13A4B1A68BB6944
:103830000133374988339B000B445B68364941F8B4
:10384000223023E03A69BB6913441B78002B05D072
:10385000BB6901333A69D35C022B0DD12D4B1A6839
:10386000BB6901332A4988339B000B445B682A49B2
:1038700041F822300AE000BFBB690133BB61244B31
:10388000B3F80C325A1EBB699A42A5DC214B1B6867
:103890000133204A136001233B621E4B1B681E4A02
:1038A00052F82320D8F80C309A420ED17B6A002BB4
:1038B00005D1184B1B68013B164A136022E07B6A56
:1038C000013B7B6200233B627AE7124B1B680133AA
:1038D000104A13603B6A012B0ED100233B627B6AC6
:1038E000002B03DD7B6A013B7B6205E0094B1B6813
:1038F000013B084A136005E07B6A5A1E7A62002B7E
:103900007FF438AFCD4600BF2C37BD46BDE8F0830D
:103910005C20002070180020000000C02DE9F04756
:10392000B8B006AFF960BA607B60D7F8F410D7F88A
:10393000F82007F1E803BB623862B9617A620023BC
:10394000C7F8C4300023C7F8C030D7F8EC301B0CE0
:10395000A7F85630D7F8EC309AB2D7F8C430D31A5B
:103960003B657B6A002B03D07B6AC7F8BC3003E061
:10397000D7F8FC30C7F8BC30FB68FB617B68C7F840
:10398000B830D7F8E830C7F8B4303A6DD7F8F0302F
:103990009A4240F075813B6D002B00F07181D7F8A1
:1039A000F030002B00F06C81D7F8EC309AB2D7F8E9
:1039B000C430D31A3B653B6D5B08FB640023BB64DA
:1039C000FB6CAD4AA2FB03235B087B643B6D5A088A
:1039D0007B681A44D7F8C430002B00DA01335B103F
:1039E0001344C7F8B8303B6D03F00103002B04D03B
:1039F000D7F8B8300133C7F8B830D7F8E830C7F88F
:103A0000B430D7F8B83007EE903AF8EE677AC7EDE1
:103A10002C7AD7F8B43007EE903AF8EE677AC7ED13
:103A20002B7AD7F8B83007EE903AF8EE677AC7ED00
:103A3000107AD7F8B43007EE903AB8EE677AFB6C9C
:103A400007EE903AF8EE677A77EE277AC7ED0F7AAD
:103A500097ED0F7AD7ED2B7A77EE677AB7EEE77AA4
:103A6000B0EE001BB0EE470B22F01EFEB0EE407B26
:103A7000F7EEC77BC7ED2A7A97ED2C7AD7ED107A4F
:103A800077EE677AB7EEE77AB0EE001BB0EE470B41
:103A900022F00AFEB0EE407BF7EEC77BC7ED0E7A50
:103AA000FA6CBB6C134407EE903AB8EE677BB0EE4D
:103AB000001BB0EE470B22F0F7FDB0EE407BF7EEB7
:103AC000C77BC7ED0D7A0023C7F8A4300023C7F8E1
:103AD000A0307B6CDAB2694B1A70D7ED2C7AB7EE56
:103AE000007A77EE877AC7ED2C7AD7F8A4300133C5
:103AF000C7F8A43097ED2C7AD7ED107A77EE677A75
:103B0000B7EEE77AB0EE001BB0EE470B22F0CCFD2B
:103B1000B0EE407BF7EEC77BC7ED0E7A97ED0E7ADD
:103B2000D7ED2A7A37EE277AD7ED0D7AB4EEE77A19
:103B3000F1EE10FA2BDDD7ED2B7AB7EE007A77EEA7
:103B4000877AC7ED2B7A97ED0F7AD7ED2B7A77EE40
:103B5000677AB7EEE77AB0EE001BB0EE470B22F0C3
:103B6000A3FDB0EE407BF7EEC77BC7ED2A7AD7F80E
:103B7000A0305A1CC7F8A0200133D7F8A420D2B235
:103B8000013AD1B23D4AD1540123C7F8A430D7F845
:103B9000A0207B6C9A42A0D3FEF746FC374B1B78E3
:103BA000A7F89E300023C7F8983012E0334B1B78FB
:103BB0001A46D7F89830D31A304AD35C9AB2B7F87D
:103BC0009E301344A7F89E30D7F898300133C7F8D9
:103BD00098302A4B1B781A46D7F898309A42E5DC81
:103BE000B7F89E305B00A7F89E30B7F89E20D7F854
:103BF000F0309A4239D8B7F89E30D7F8F020D31A6F
:103C00005B08D7F8B4201344C7F8B430B7F89E3037
:103C10005B089BB219467A68D7F8B830D31A0B44C0
:103C2000D7F8B8201344C7F8B830D7F8E830C7F849
:103C3000B430124AB7F89E30A2F80432D7F8B83040
:103C40009AB20E4BA3F808220C4BB3F804325B086F
:103C50009AB2D7F8B4309BB213449AB2074BA3F888
:103C60000A220123C7F8C03013E0D7F8C43001336B
:103C7000C7F8C43098E600BFABAAAAAA5C2000200F
:103C80003B6D002B40F0CD86D7F8F030002B40F094
:103C9000C886864B1B78591C6B469A464B1E3B6365
:103CA0000B461A464FF000034FEAC30949EA52791E
:103CB0004FEAC2080B461A464FF00003DD0045EA02
:103CC0005275D4000B460733DB08DB00ADEB030D68
:103CD00006AB0033FB62FB6A74491846FEF77AFBB9
:103CE000386AF969D7F8B430D7F8B82001F058F835
:103CF000B7F85630052B40F0DB80D7F8C030002BEA
:103D000000F0D6800023FB75684BD3ED7D7A674BBE
:103D100093ED7E7A386ABA6907F11701634B039312
:103D200000230293FB680193D7F8BC300093F0EEB8
:103D3000470AB0EE670AD7F8FC30FFF7CFF9034621
:103D4000002B40F0A98000F0F9FFFB695B421846A8
:103D500001F014F8554BD3ED7D7AB86901230122A7
:103D6000B0EE670AD7F8FC10FEF7FEFA00F0F6FF97
:103D70004E4BD3ED7D7A4D4B93ED7E7AFB6A386ADC
:103D8000BA6907F11701039301230293FB680193BA
:103D9000D7F8BC300093F0EE470AB0EE670AD7F8C8
:103DA000FC30FFF79BF90346002B77D13F4BD3ED57
:103DB0007D7A3E4B5B789AB2FB69B869B0EE670AD0
:103DC000D7F8FC10FEF7D0FA4FF0FF3000F0D6FF26
:103DD000364BD3ED7D7A354B93ED7E7A386ABA69EE
:103DE00007F11701314B039301230293FB68019301
:103DF000D7F8BC300093F0EE470AB0EE670AD7F868
:103E0000FC30FFF727FB0346002B49D100F096FF5B
:103E1000012000F0B3FF254BD3ED7D7AB869012373
:103E20000122B0EE670AD7F8FC10FEF79DFA00F009
:103E300095FF1E4BD3ED7D7A1C4B93ED7E7AFB6A8A
:103E4000386ABA6907F11701039300230293FB68EC
:103E50000193D7F8BC300093F0EE470AB0EE670A42
:103E6000D7F8FC30FFF7F6FA0346002B1AD10F4BB8
:103E7000D3ED7D7A0D4B5B789AB2B8694FF0FF3382
:103E8000B0EE670AD7F8FC10FEF76EFAFB695B42EA
:103E9000184600F073FF06E000BF04E000BF02E038
:103EA00000BF00E000BFD54600F0BCBD5C20002094
:103EB000AE4BD3ED7D7AAD4B93ED7E7AB869AB4BCB
:103EC000019300230093FB68F0EE470AB0EE670A07
:103ED000D7F8BC20D7F8FC1001F078F800F02EFFDE
:103EE000FB695B42184600F049FFA04BD3ED7D7A99
:103EF000B86901230122B0EE670AD7F8FC10FEF77B
:103F000033FA00F02BFF994BD3ED7D7A974B93ED6D
:103F10007E7AFB6AB869019301230093FB68F0EE97
:103F2000470AB0EE670AD7F8BC20D7F8FC1001F0BA
:103F30004DF88E4BD3ED7D7A8C4B5B789AB2FB6952
:103F4000B869B0EE670AD7F8FC10FEF70DFA4FF02B
:103F5000FF3000F013FF854BD3ED7D7A834B93ED5B
:103F60007E7AB869814B019301230093FB68F0EEE0
:103F7000470AB0EE670AD7F8BC20D7F8FC1001F06A
:103F800023FA00F0DBFE012000F0F8FE774BD3EDC2
:103F90007D7AB86901230122B0EE670AD7F8FC10D8
:103FA000FEF7E2F900F0DAFE704BD3ED7D7A6F4B4D
:103FB00093ED7E7AFB6AB869019300230093FB6856
:103FC000F0EE470AB0EE670AD7F8BC20D7F8FC102D
:103FD00001F0FAF9654BD3ED7D7A644B5B789AB2C8
:103FE000B8694FF0FF33B0EE670AD7F8FC10FEF760
:103FF000BBF9FB695B42184600F0C0FE5B4BD3ED9A
:104000007D7A5A4B93ED7E7AB869584B0193002321
:104010000093FB68F0EE470AB0EE670AD7F8BC20C1
:10402000D7F8FC1001F0C6FA00F088FEFB691846CC
:1040300000F0A4FE4D4BD3ED7D7AFB695B42B8697D
:104040000122B0EE670AD7F8FC10FEF78DF900F0F8
:1040500085FE464BD3ED7D7A444B93ED7E7AFB6A29
:10406000B869019301230093FB68F0EE470AB0EEB4
:10407000670AD7F8BC20D7F8FC1001F09BFA3B4B3D
:10408000D3ED7D7A394B5B789AB2FB695B42B869B4
:10409000B0EE670AD7F8FC10FEF766F9012000F0D1
:1040A0006DFE324BD3ED7D7A304B93ED7E7AB8695D
:1040B0002E4B019301230093FB68F0EE470AB0EE0C
:1040C000670AD7F8BC20D7F8FC1001F087F800F099
:1040D00035FE4FF0FF3000F051FE244BD3ED7D7ADA
:1040E000B86901230122B0EE670AD7F8FC10FEF789
:1040F0003BF900F033FE1D4BD3ED7D7A1B4B93ED66
:104100007E7AFB6AB869019300230093FB68F0EEA6
:10411000470AB0EE670AD7F8BC20D7F8FC1001F0C8
:104120005DF8124BD3ED7D7A104B5B789AB2B8698B
:104130000123B0EE670AD7F8FC10FEF715F97B6A89
:10414000002B00F070810023A7F89430386AF969D9
:10415000D7F8B430D7F8B82000F022FE0023A7F833
:1041600096300023C7F890303DE000BF5C2000206F
:10417000D7F890300133C54AD35C1A46FB699B1AC5
:10418000184600F0FBFD00F0D9FDD7F89030013360
:10419000BE4AD35C1A46BE4B1B681344BC4A13602C
:1041A000D7F89030002B07DDB7F896305B007A6ABD
:1041B0001146184600F072FE00F0D0FDB7F89430BA
:1041C0000133A7F89430D7F890300133AF4AD35C6D
:1041D0009AB2B7F896301344A7F89630D7F89030D3
:1041E0000133C7F89030A94B1B781A46D7F89030A6
:1041F0009A42BDDC0023C7F88C305AE0B7F89630FD
:104200000133A7F896304FF0FF3000F0B7FD0023E0
:10421000C7F888303BE0FB69184600F0AFFD00F0BE
:104220008DFD9A4B1B781A46D7F88C30D31A974AD3
:10423000D35C5A1ED7F888309A420ED1944B1B6833
:104240000133934A1360B7F89630013B5B007A6AFA
:104250001146184600F022FE0DE08D4B1B6802331C
:104260008B4A1360B7F89630023B5B007A6A1146BE
:10427000184600F013FE00F071FDB7F894300133DA
:10428000A7F89430D7F888300133C7F888307F4BCF
:104290001B781A46D7F88C30D31A7C4AD35C1A465E
:1042A000D7F888309A42B6DCD7F88C300133C7F89B
:1042B0008C30764B1B781A46D7F88C309A429DDCAE
:1042C000B7F894305B009BB2013BA7F89430B7F885
:1042D0009420D7F8B4301344386AF969D7F8B82075
:1042E00000F05EFD0023A7F896300023C7F8843065
:1042F00035E0FB695B42D7F88420013263498A5C70
:104300009B1A184600F03AFD00F018FDD7F88430EB
:1043100001335E4AD35C1A465D4B1B6813445C4A0A
:104320001360D7F88430002B07DDB7F896305B00B8
:104330007A6A1146184600F0B1FD00F00FFDD7F87B
:1043400084300133514AD35C9AB2B7F896301344A3
:10435000A7F89630D7F884300133C7F884304B4B38
:104360001B781A46D7F884309A42C2DC0023C7F87B
:10437000803051E0B7F896300133A7F896304FF00F
:10438000FF3000F0FBFC0023FB6734E0FB695B427D
:10439000184600F0F3FC00F0D1FC3C4B1B781A46A9
:1043A000D7F88030D31A394AD35C5A1EFB6F9A4231
:1043B0000ED1374B1B680133354A1360B7F896307E
:1043C000013B5B007A6A1146184600F067FD0DE07C
:1043D0002F4B1B6802332E4A1360B7F89630023B0E
:1043E0005B007A6A1146184600F058FD00F0B6FCF2
:1043F000FB6F0133FB67254B1B781A46D7F88030DB
:10440000D31A224AD35C1A46FB6F9A42BEDCD7F815
:1044100080300133C7F880301C4B1B781A46D7F820
:1044200080309A42A6DCB7F85630042B40F0F78271
:10443000D7F8C030002B00F0F2820023BB670023C6
:10444000A7F876300023A7F8743000233B675CE1BF
:104450003B6F01330D4A03F582735B0013449B8865
:104460002D2B17D93B6F0133084A03F582735B008C
:1044700013449B88592B0DD8044BB3F80432952B69
:1044800000F280804FF0FF33BB677BE05C200020B0
:10449000701800203B6F0133A54A03F582735B005F
:1044A00013449B88702B0CD93B6F0133A04A03F552
:1044B00082735B0013449B889D2B02D80223BB6749
:1044C00060E03B6F01339A4A03F582735B0013444B
:1044D0009B88C82B0CD93B6F0133954A03F5827337
:1044E0005B0013449B88F72B02D80323BB6749E08A
:1044F0003B6F01338E4A03F582735B0013449B8844
:10450000B3F5877F0ED33B6F0133894A03F582737E
:104510005B0013449B88B3F5927F03D84FF0FF33C1
:10452000BB672FE03B6F0133814A03F582735B0069
:1045300013449B88B3F5927F24D93B6F01337C4AA7
:1045400003F582735B0013449B88B3F5A97F19D8E8
:10455000774BB3F80432642B08D9754BB3F80432A7
:10456000B3F5827F02D20123BB670BE0704BB3F837
:104570000432B3F5827F02D90223BB6702E04FF019
:10458000FF33BB673B6F002B3BD1694BB3F808028D
:10459000674BB3F80A42664BB3F804321A1FBB6F7D
:1045A000D31A002B00DA01335B109BB2013B9DB2A2
:1045B0003B6F01335E4A03F582735B0013449A88B4
:1045C0005B4BD3ED7D7A5A4B93ED7E7A3B6F013393
:1045D000574988339B000B445968BB690491D7F84D
:1045E000BC100391F968029101930092F0EE470A22
:1045F000B0EE670A2B4622460146002001F0E8FC97
:1046000080E04B4BB3F80C325A1E3B6F9A423AD1C2
:10461000474BB3F80842464BB3F80A52444BB3F841
:1046200004321A1FBB6FD31A002B00DA01335B1060
:104630009BB2013B9EB23B6F01333D4A03F582734F
:104640005B0013449A883A4BD3ED7D7A384B93ED57
:104650007E7A37493B6F88339B000B445968BB69AE
:10466000D7F8BC0004900391F9680291019300927D
:10467000F0EE470AB0EE670A33462A46214600208C
:1046800001F0A6FC3EE02A4BB3F80842284BB3F8F1
:104690000A52274BB3F804321A1FBB6FD31A002BF0
:1046A00000DA01335B109BB2013B9EB23B6F0133DA
:1046B0001F4A03F582735B0013449A881C4BD3EDA9
:1046C0007D7A1B4B93ED7E7A19493B6F88339B00B3
:1046D0000B4459683B6F0133154888339B000344F2
:1046E0005868BB6904900391F968029101930092A4
:1046F000F0EE470AB0EE670A33462A46214600200C
:1047000001F066FC3B6F01333B67094BB3F80C3299
:104710001A463B6F9A423FF79BAE386AF969D7F861
:10472000B430D7F8B82000F03BFB0023FB6643E031
:104730005C200020FB6E0133BC4AD35C1A46FB6947
:104740009B1A184600F01AFB00F0F8FAFB6E0133D2
:10475000B64AD35C1A4607F118039C46104600F08F
:1047600067F9FB6E002B08DDB7F876305A0007F1C9
:1047700018039C461046FEF7D1FFFB6E0133AB4A8F
:10478000D35C1A4607F118039C46104600F050F916
:1047900000F0E4FAB7F874300133A7F87430FB6E18
:1047A0000133A24AD35C9AB2B7F876301344A7F823
:1047B0007630FB6E0133FB669C4B1B781A46FB6E12
:1047C0009A42B7DC0023BB6661E0B7F8763001336C
:1047D000A7F876304FF0FF3000F0D0FA00237B6668
:1047E00047E0FB69184600F0C9FA00F0A7FA8F4BC2
:1047F0001B781A46BB6ED31A8C4AD35C5A1E7B6E4A
:104800009A4216D107F118039C46012000F010F9D6
:10481000B7F87630013B5A0007F118039C46104662
:10482000FEF77CFF07F118039C46012000F000F919
:1048300015E007F118039C46022000F0F9F8B7F8DC
:104840007630023B5A0007F118039C461046FEF7EB
:1048500065FF07F118039C46022000F0E9F800F01C
:104860007DFAB7F874300133A7F874307B6E0133EA
:104870007B666E4B1B781A46BB6ED31A6B4AD35CB1
:104880001A467B6E9A42ACDCBB6E0133BB66674B4B
:104890001B781A46BB6E9A4297DCB7F874305B00FF
:1048A0009BB2013BA7F87430B7F87420D7F8B43046
:1048B0001344386AF969D7F8B82000F071FA002378
:1048C000A7F8763000233B663CE0FB695B423A6E1A
:1048D000013256498A5C9B1A184600F04FFA00F0E4
:1048E0002DFA3B6E0133514AD35C1A4607F1180387
:1048F0009C46104600F09CF83B6E002B08DDB7F894
:1049000076305A0007F118039C461046FEF706FF62
:104910003B6E0133454AD35C1A4607F118039C46A7
:10492000104600F085F800F019FA3B6E01333F4A5B
:10493000D35C9AB2B7F876301344A7F876303B6E62
:1049400001333B66394B1B781A463B6E9A42BCDCFE
:104950000023FB655DE0B7F876300133A7F87630C9
:104960004FF0FF3000F00AFA0023BB6543E0FB691B
:104970005B42184600F002FA00F0E0F92B4B1B787E
:104980001A46FB6DD31A294AD35C5A1EBB6D9A4254
:1049900016D107F118039C46012000F049F8B7F83A
:1049A0007630013B5A0007F118039C461046FEF78B
:1049B000B5FE07F118039C46012000F039F815E018
:1049C00007F118039C46022000F032F8B7F8763061
:1049D000023B5A0007F118039C461046FEF79EFE64
:1049E00007F118039C46022000F022F800F0B6F907
:1049F000BB6D0133BB650D4B1B781A46FB6DD31A9B
:104A00000A4AD35C1A46BB6D9A42B0DCFB6D013397
:104A1000FB65064B1B781A46FB6D9A429BDCD5461C
:104A200000E000BFC837BD46BDE8F0875C2000202D
:104A30002DE9F04188B000AF78606446C7F800C047
:104A4000694688467968F9616B49B1F80CE27146AC
:104A5000013939611FFA8EF04FF000014E0146EA2C
:104A6000D06645011FFA8EF04FF000014B0143EA7A
:104A7000D063420173469B0003330733DB08DB003E
:104A8000ADEB030D6B4603339B089B00FB60A6E078
:104A90000023BB610FE0A368184663681A46B96932
:104AA000FDF776FF03461946FB68BA6943F8221002
:104AB000BB690133BB61504BB3F80C321A46BB697A
:104AC0009A42E8DC00237B617CE07B6902334A4A3E
:104AD00003F582735B0013449B8819467B6901339D
:104AE000454A03F582735B0013449B88CB1ABB6075
:104AF000BB68002B02DDBB68B42B03DDBB6813F180
:104B0000B40F2DDAFB687A6953F82230002B55D1A7
:104B10007B695A1CFB6853F82230022B4ED1374B6D
:104B20001D687B690133344A88339B0013445E68F7
:104B3000324B1B68324A52F823202368E16818463A
:104B400002F004FEF0EE407A2368B0EE670A3146C8
:104B5000184602F055FD0246294B43F8252039E05E
:104B6000FB687A6953F82230002B06D07B695A1C07
:104B7000FB6853F82230022B21D1204B1D687B6942
:104B800001331D4A88339B0013445E681B4B1B682E
:104B90001B4A52F823202368E168184602F0D6FD2C
:104BA000F0EE407A2368B0EE670A3146184602F00C
:104BB00027FD0246124B43F825200BE000BF7B691E
:104BC00001337B610C4BB3F80C325A1E7B699A425D
:104BD0003FF77BAF094B1B680133084A1360FB6941
:104BE0005A1EFA61002B7FF453AFC54600BF203731
:104BF000BD46BDE8F08100BF5C2000207018002099
:104C0000000000C080B400AF034B00221A7000BF48
:104C1000BD465DF8047B70475820002080B483B007
:104C200000AF87ED010AC7ED000A064A7B681360F2
:104C3000044A3B68536000BF0C37BD465DF8047BF7
:104C4000704700BF50200020B0B489B000AF78603A
:104C500039607B680A2B55DD7B68002B00DA013355
:104C60005B10FB61FB697B61324B1B689B00324A26
:104C700013443B613B681A464FF0000315000024C3
:104C80003B681A464FF0000344EA020045EA03017C
:104C900003460C46C7E90234FB69013BFB6109E0AE
:104CA000FB695A1EFA61DB003A691A44D7E90234FB
:104CB00082E81800FB69002BF2D1FB69DB003A693E
:104CC0001A44D7E9023482E818007B68002B00DA26
:104CD00001335B101A467B6913441A46154B1B6857
:104CE0001344144A13607B6803F00103002B1CD0AB
:104CF000104B1B685A1C0F490A600F493A6841F86B
:104D0000232012E00023BB610BE00A4B1B685A1CF6
:104D100008490A6008493A6841F82320BB69013311
:104D2000BB61BA697B689A42EFDB00BF2437BD469E
:104D3000B0BC704770180020000000C080B400AF05
:104D4000044B1B68044A136000BFBD465DF8047B3A
:104D5000704700BF701800207418002080B400AFA6
:104D6000044B1B68044A136000BFBD465DF8047B1A
:104D7000704700BF741800207018002080B483B002
:104D800000AF7860054B1A687B681344034A1360D0
:104D900000BF0C37BD465DF8047B704770180020DB
:104DA00080B485B000AFF860B9607A603B603B6862
:104DB000BA6802FB03F27B681A44FB681344044A96
:104DC000136000BF1437BD465DF8047B704700BF19
:104DD0007018002080B489B000AFF860B9607A60C4
:104DE0000F4B1A68BB68D31AFB61FA697B68B2FB88
:104DF000F3F3BB61FA69BB6919467B6803FB01F3F6
:104E0000D31A7B61FB681A4607F1140393E8030089
:104E100082E80300F8682437BD465DF8047B7047DC
:104E20007018002080B489B000AFF860B9607A6073
:104E30003B607A68BB68D31AFB61FA693B68B2FBD6
:104E4000F3F3BB61FA69BB6919463B6803FB01F3E5
:104E5000D31A7B61FB681A4607F1140393E8030039
:104E600082E80300F8682437BD465DF8047B70478C
:104E700080B483B000AF786039607A683B68D21A3A
:104E8000054B1B681344044A136000BF0C37BD4632
:104E90005DF8047B704700BF7018002080B485B0B7
:104EA00000AF786039607B68FB600E4B1B689B002D
:104EB0000D4A1344BB6004E0BB681A1DBA603A682F
:104EC0001A60FB685A1EFA60002BF5D1054B1A6870
:104ED0007B681344034A136000BF1437BD465DF876
:104EE000047B704770180020000000C090B587B0A8
:104EF00000AFF860B9607A6087ED000AB7EE007A1B
:104F0000D7ED007A77EE676AFB6807EE903AB8EE65
:104F1000E77AC6EE877AC7ED047AFB68174A136012
:104F200000237B6120E07B690133B3F5FA7F20DC4D
:104F30007B695C1C7B6907EE903AB8EEE77AD7EDA7
:104F4000047A27EE277AD7ED007A77EE277AB0EE4B
:104F5000670A7968B86802F053FB0246074B43F8CA
:104F600024207B6901337B617A69FB689A42DADB32
:104F700000E000BF00BF1C37BD4690BD7818002080
:104F800090B585B000AF6446C7F804C00D4BB3F8C8
:104F900008120C4BB3F80A22A3680020FDF74CFA64
:104FA0000346FB81FB89912B05D9FB89A92B02D8EC
:104FB000054B636001E02368636000BF1437BD46A2
:104FC00090BD00BF5C2000207878FFFF80B590B0D6
:104FD00000AFF960BA6087ED010AC7ED000A07F17A
:104FE0004802FA613861BB61FB6C1B78FB63FB6CA8
:104FF00001331B78BB6302237B633B697B61BB6C22
:10500000002B40F0DC806AE0BB6B3B620DE0704B34
:105010001B685A1C6E490A607A696E4941F8232060
:1050200007F110039C46FFF7ABFFBB6B5A1EBA6338
:10503000002BECD1FB6B002B26D07B6B5A1C7A63C8
:105040001A46FB6C13441B78BB637B6997ED010A1E
:10505000FA681946B86BFFF749FF00233B630EE07F
:105060005B4B1A683B6B13443A6B01325A4951F857
:105070002220584941F823203B6B01333B63564BB8
:105080001A683B6B9A42EBD8514B1A68BB691344C0
:105090004F4A136007F110039C46FFF771FF7B69CD
:1050A00097ED000ABA681946386AFFF71FFF002318
:1050B000FB620FE0464B1A68FB6AD31A013BFA6A9F
:1050C0000132454951F82220424941F82320FB6A28
:1050D0000133FB62404B1A68FB6A9A42EAD8FB6BC9
:1050E0005A1EFA63002B8FD16EE0BB6B3B620BE064
:1050F000374B1B687A69374941F82320344B1A68CB
:10510000BB691344324A1360BB6B5A1EBA63002B4F
:10511000EED1FB6B002B29D07B6B5A1C7A631A46AD
:10512000FB6C13441B78BB637B6997ED000ABA687C
:105130001946B86BFFF7DAFE0023BB6211E0BB6AC9
:10514000BA6902FB03F2224B1B681344BA6A0132AC
:10515000214951F822201F4941F82320BB6A01331D
:10516000BB621D4B1A68BB6A9A42E8D8184B1B6891
:105170000133174A13607B6997ED010AFA681946F3
:10518000386AFFF7B3FE00237B6213E0104B1A6806
:105190007B6A01331946BB6903FB01F3D31A7A6AB0
:1051A00001320D4951F822200A4941F823207B6A37
:1051B00001337B62084B1A687B6A9A42E6D8FB6B24
:1051C0005A1EFA63002B90D100BF4037BD4680BD08
:1051D00070180020000000C07818002080B58EB044
:1051E00000AF78613961FA6087ED020AC7ED010A04
:1051F0003B607B6C1B787B637B6C01331B783B6370
:105200000223FB623B6C002B40F0CE805EE03B6BE8
:10521000BB6108E0694B1B685A1C68490A60684911
:105220007A6941F823203B6B5A1E3A63002BF1D177
:105230007B6B002B25D0FB6A5A1CFA621A467B6CEA
:1052400013441B783B6397ED010AFA687969386B60
:10525000FFF74CFE0023BB620EE0584B1A68BB6A96
:105260001344BA6A0132574951F82220544941F88F
:105270002320BB6A0133BB62524B1A68BB6A9A4255
:10528000EBD84E4B1A683B68D31A4C4A136097ED23
:10529000020A3A697969B869FFF728FE00237B6240
:1052A0000FE0464B1A687B6AD31A013B7A6A0132D7
:1052B000444951F82220424941F823207B6A0133B6
:1052C0007B62404B1A687B6A9A42EAD87B6B5A1E13
:1052D0007A63002B9BD16CE03B6BBB610BE0374BDF
:1052E0001B6837497A6941F82320344B1A683B68B8
:1052F000D31A324A13603B6B5A1E3A63002BEED12D
:105300007B6B002B28D0FB6A5A1CFA621A467B6C16
:1053100013441B783B6397ED020A3A697969386B4D
:10532000FFF7E4FD00233B6211E0244B1A683B6A5F
:10533000396801FB03F3D31A3A6A0132214951F863
:1053400022201F4941F823203B6A01333B621D4B59
:105350001A683B6A9A42E8D8184B1B680133174A0F
:10536000136097ED010AFA687969B869FFF7BEFD25
:105370000023FB6113E0FB6901331A463B6803FB22
:1053800002F20E4B1B681344FA6901320D4951F8C1
:1053900022200B4941F82320FB690133FB61094BB3
:1053A0001A68FB699A42E6D87B6B5A1E7A63002B17
:1053B00092D100BF3837BD4680BD00BF70180020B5
:1053C000000000C07818002080B58EB000AF786172
:1053D0003961FA6087ED020AC7ED010A3B607B6C18
:1053E0001B787B637B6C01331B783B630223FB627E
:1053F0003B6C002B40F0CE805EE03B6BBB6108E075
:10540000694B1B685A1E68490A6068497A6941F805
:1054100023203B6B5A1E3A63002BF1D17B6B002B90
:1054200025D0FB6A5A1CFA621A467B6C13441B781F
:105430003B6397ED010AFA687969386BFFF756FD0F
:105440000023BB620EE0584B1A68BB6AD31ABA6AD3
:105450000132574951F82220544941F82320BB6AB0
:105460000133BB62524B1A68BB6A9A42EBD84E4B6F
:105470001A683B6813444C4A136097ED020A3A6974
:105480007969B869FFF732FD00237B620FE0464B74
:105490001A687B6A134401337A6A0132444951F82D
:1054A0002220424941F823207B6A01337B62404B32
:1054B0001A687B6A9A42EAD87B6B5A1E7A63002B81
:1054C0009BD16CE03B6BBB610BE0374B1B683749F2
:1054D0007A6941F82320344B1A683B681344324AF6
:1054E00013603B6B5A1E3A63002BEED17B6B002B93
:1054F00028D0FB6A5A1CFA621A467B6C13441B784C
:105500003B6397ED020A3A697969386BFFF7EEFC65
:1055100000233B6211E03B6A3A6802FB03F2224B34
:105520001B6813443A6A0132214951F822201F496D
:1055300041F823203B6A01333B621D4B1A683B6AEA
:105540009A42E8D8184B1B68013B174A136097ED45
:10555000010AFA687969B869FFF7C8FC0023FB61A2
:1055600013E0114B1A68FB69013319463B6803FBD2
:1055700001F3D31AFA6901320D4951F822200B497F
:1055800041F82320FB690133FB61094B1A68FB6971
:105590009A42E6D87B6B5A1E7A63002B92D100BFE9
:1055A0003837BD4680BD00BF70180020000000C025
:1055B0007818002080B58EB000AF78613961FA604C
:1055C00087ED020AC7ED010A3B607B6C1B787B63A9
:1055D0007B6C01331B783B630223FB623B6C002B2B
:1055E00040F0CE805EE03B6BBB6108E0694B1B681E
:1055F0005A1E68490A6068497A6941F823203B6B62
:105600005A1E3A63002BF1D17B6B002B25D0FB6A2D
:105610005A1CFA621A467B6C13441B783B6397ED65
:10562000020A3A697969386BFFF760FC0023BB62B4
:105630000EE0584B1A68BB6AD31ABA6A013257494E
:1056400051F82220544941F82320BB6A0133BB6240
:10565000524B1A68BB6A9A42EBD84E4B1A683B68A9
:10566000D31A4C4A136097ED010AFA687969B86950
:10567000FFF73CFC00237B620FE0464B1A687B6A15
:10568000134401337A6A0132444951F822204249D5
:1056900041F823207B6A01337B62404B1A687B6AA6
:1056A0009A42EAD87B6B5A1E7A63002B9BD16CE03E
:1056B0003B6BBB610BE0374B1B6837497A6941F89C
:1056C0002320344B1A683B68D31A324A13603B6B71
:1056D0005A1E3A63002BEED17B6B002B28D0FB6A5D
:1056E0005A1CFA621A467B6C13441B783B6397ED95
:1056F000010AFA687969386BFFF7F8FB00233B620F
:1057000011E0244B1A683B6A396801FB03F3D31A92
:105710003A6A0132214951F822201F4941F82320D9
:105720003B6A01333B621D4B1A683B6A9A42E8D8D8
:10573000184B1B68013B174A136097ED020A3A6940
:105740007969B869FFF7D2FB0023FB6113E0FB69BD
:1057500001331A463B6803FB02F20E4B1B681344ED
:10576000FA6901320D4951F822200B4941F82320F2
:10577000FB690133FB61094B1A68FB699A42E6D861
:105780007B6B5A1E7A63002B92D100BF3837BD461F
:1057900080BD00BF70180020000000C078180020F5
:1057A00080B586B002AFF860B9607A603B60FB6894
:1057B0009B00064A13440093BB693A687968B8684D
:1057C00002F068F900BF1037BD4680BD000000C080
:1057D00090B583B002AF02F0E7F8044602F0F8F8A3
:1057E000034600932346002200210020FFF7D8FF44
:1057F00000BF0437BD4690BD90B58DB008AFF860CE
:10580000B9607A603B6002F0CFF8044602F0E0F83D
:105810000246FB6A0693BB6A05937B6A04933B6A64
:1058200003933B680293BB680193FB6800931346A4
:1058300022460021786800F004F800BF1437BD4606
:1058400090BD90B58BB006AFF860B9607A603B60F0
:10585000BB6B05937B6B04933B6B0393FB6A0293D7
:10586000BB6A01937B6A0093FC683B6A3A6879687B
:10587000B868A04700BF1437BD4690BD90B58BB047
:1058800006AFF860B9607A603B60FB6A0593BB6A5B
:1058900004937B6A03933B6A02933B680193002362
:1058A00000937C6800233A6A39680020A0473B6A6D
:1058B00000933B68BA68F9680020FFF771FF00BFEA
:1058C0001437BD4690BD0000F0B58BB008AF7860CE
:1058D00002F06AF8054602F07BF8064602F064F82A
:1058E000044602F075F802467B6806937B680593D0
:1058F0007B68049303920294002301930023009396
:1059000033462A4600210348FFF79BFF00BF0C37B0
:10591000BD46F0BD3D59200080B483B000AF786033
:105920000B46FB707B6823F07F43FA781206134323
:1059300018460C37BD465DF8047B704780B586B0CD
:1059400000AFF860B9607A603B603B6A3A68B9685A
:10595000F868FFF725FA7B6AF96A1846FFF774F9C9
:10596000BB6A012B25D9796AB868FFF781FA002351
:105970007B6114E0F96A0120FFF766F97B6A023B5C
:10598000396B1846FFF760F9F96A0120FFF75CF9F7
:10599000796AB868FFF76CFA7B6901337B61BB6A8F
:1059A0009A1E7B699A42E5D87B6AF96A1846FFF726
:1059B0004BF900BF1837BD4680BD000080B586B0EA
:1059C00000AFF860B9607A603B603B6A3A68B968DA
:1059D000F868FFF7E5F97B6AF96A1846FFF734F9CA
:1059E000BB6A012B26D9796AB868FFF741FA002310
:1059F0007B6115E0F96A0120FFF726F90F4B1A6861
:105A00007B6A1344023B0D4A1360F96A0120FFF7D9
:105A10001BF9796AB868FFF72BFA7B6901337B6160
:105A2000BB6A9A1E7B699A42E4D87B6AF96A184677
:105A3000FFF70AF900BF1837BD4680BD7018002077
:105A400080B58CB000AFF860B9607A603B607B6C69
:105A50001B0E87F82F3097F82F30002B0BD097F8BC
:105A60002F30012B07D097F82F30022B03D097F857
:105A70002F30FF2B02D1022387F82F3097F82F30D9
:105A80005B00FB61FB693A6CD31ABB61FB69FA6B83
:105A9000D31A7B61BB6B3A68B968F868FFF780F985
:105AA000FB6B796C1846FFF7CFF80023BB620BE065
:105AB000F96BB868FFF7DCF9FB6B796C1846FFF7F8
:105AC000C3F8BB6A0133BB6297F82F305A1EBB6A1A
:105AD0009A42EDDCF96BB868FFF7CAF9BB69002B95
